:100000000C942A000C9447000C9447000C94470071
:100010000C9447000C9447000C9447000C94470044
:100020000C9447000C9447000C9447000C94470034
:100030000C9447000C9447000C9447000C94470024
:100040000C9447000C9447000C9447000C94470014
:100050000C94470011241FBECFE5D4E0DEBFCDBF16
:1000600010E0A0E6B0E0EEEAF1E002C005900D92EB
:10007000AE36B107D9F720E0AEE6B0E001C01D9280
:10008000A037B207E1F70E9449000C94D5000C9408
:10009000000085E08EBD24E630E03BBD2ABD83BF75
:1000A00012BE8FEF81BB84BB8FE085BB8091640063
:1000B00082BBE0E0F0E0CAE0D0E004E610E088EEC9
:1000C000E82E83E0F82ECF01BE010E94AD00D82EAD
:1000D000C92ECB01BE010E94AD00B82EA92ECF01C2
:1000E000B8010E94AD00CB01BE010E94AD00982E68
:1000F000892ECF01B7010E94AD00CB01BE010E9445
:10010000AD0022B72370422F50E039F0213041F08A
:100110004230510541F09C0108C02D2D3C2D05C0F9
:100120002B2D3A2D02C0292D382DDA01A05ABF4FB0
:100130004C9145BBD901AC59BF4F2C9122BB08B69D
:1001400004FEFDCFE03127E2F207DCF631961DBC5C
:100150001CBC88B7806188BFB6CF97FB072E16F40A
:10016000009407D077FD09D00E94C10007FC05D09C
:100170003EF4909581959F4F0895709561957F4FBE
:100180000895AA1BBB1B51E107C0AA1FBB1FA617DE
:10019000B70710F0A61BB70B881F991F5A95A9F730
:0E01A00080959095BC01CD010895F894FFCF95
:0E01AE0001020408C0F9A4B0999282F8809072
:00000001FF
