:100000000C9432000C944F000C944F000C944F0051
:100010000C944F000C944F000C944F000C944F0024
:100020000C944F000C944F000C944F000C944F0014
:100030000C944F000C944F000C944F000C944F0004
:100040000C944F000C944F000C944F000C944F00F4
:100050000C944F003738392F3435362A3132332D4E
:1000600043303D2B11241FBECFE5D4E0DEBFCDBF12
:1000700010E0A0E6B0E0E8E1F4E002C005900D92E7
:10008000AE38B107D9F720E0AEE8B0E001C01D926C
:10009000AB39B207E1F70E9470010C940A020C948C
:1000A00000009BB39F70282F207F922B9BBBD8987A
:1000B000D99A32E03A95F1F700C0D998EFE8F1E02B
:1000C0003197F1F700C000002BB32F70F0E18F9F44
:1000D000C0011124822B8BBBD99A32E03A95F1F7FB
:1000E00000C0D9988FE99FE00197F1F700C00000A8
:1000F00008959BB39F70282F207F922B9BBBD89A8B
:10010000D99A32E03A95F1F700C0D998EFE8F1E0DA
:100110003197F1F700C000002BB32F70F0E18F9FF3
:10012000C0011124822B8BBBD99A32E03A95F1F7AA
:1001300000C0D9988FE99FE00197F1F700C0000057
:100140000895CF93DF93EC018991882319F00E94E1
:100150007900FACFDF91CF91089581E00E9451009C
:100160008FE697E10197F1F700C0000080E80C945A
:1001700051008AB3836F8ABB8FE39CE90197F1F743
:1001800000C0000082E00E94510088E20E945100FD
:100190008EE00E9451008FE697E10197F1F700C0D1
:1001A0000000089584B3806F84BB85B38F6085BBE6
:1001B0000895CF93DF931F92CDB7DEB780EF898389
:1001C00083B399818170892B898383B399818270EC
:1001D000892B898383B399818470892B898383B325
:1001E00099818870892B8983998181E09F3F09F4E7
:1001F00080E0819590E00F90DF91CF9108950E946B
:10020000D900892BE1F708952FEE3FED4FEB9FE7E3
:1002100085B38F7085BB000083B38F70809390008F
:100220008F30B1F7EFE3FCE93197F1F700C0000040
:1002300083B38F70809390008F30A1F3FFEF59EF5D
:1002400060E0F15050406040E1F700C0000083B32F
:100250008F70809390008F3029F325BB000083B30B
:100260008F70809390008F3019F010928F0020C013
:1002700035BB000083B38F70809390008F3011F0F6
:1002800081E014C045BB000083B38F708093900061
:100290008F3011F082E00AC095BB000083B38F70ED
:1002A000809390008F3009F4B3CF83E080938F0068
:1002B00080919000E0918F00F0E08E3019F4EC5ABC
:1002C000FF4F0CC08D3019F4E85AFF4F07C08B3038
:1002D00019F4E45AFF4F02C0E05AFF4F8491089589
:1002E000CF93DF93CDB7DEB764970FB6F894DEBF38
:1002F0000FBECDBF87B3886487BB0E94B90080E67C
:1003000090E00E94A10080EC0E94510086E690E0FF
:100310000E94A1000E94D20085E0E8E8F0E0DE0142
:10032000509601900D928A95E1F785E0E8E8F0E0BB
:10033000DE011B9601900D928A95E1F73E018AE05D
:10034000680E711C5E0195E0A90EB11C4E01A4E17E
:100350008A0E911C80918E008111FECF8E010A5F62
:100360001F4F78010E940401F70181937F010E94D1
:100370007900E614F704B1F781E00E94510080E6AD
:1003800090E00E94A10080EC0E9451008BE690E07A
:100390000E94A100CE0101967C016C010E94040123
:1003A000D6018D936D010E947900CA14DB04B1F768
:1003B00081E00E945100FE017096AE01455F5F4FE3
:1003C00081E02191D8019D918D01291380E0DA010E
:1003D0002D91AD01D7019D917D01291380E0E81594
:1003E000F90579F7882349F082E790E00E94A1009F
:1003F00081E080938E00C39AADCFC69A8CE790E0DF
:100400000E94A10080EC0E94510086E690E00E94CC
:08041000A100A0CFF894FFCF7A
:100418004C6F67696E0049443A2000506173733A23
:1004280020004C6F67656420496E210057726F6E1B
:0E0438006720496E666F2100303235380000B3
:00000001FF
