:100000000C942A000C943F000C943F000C943F0089
:100010000C943F000C943F000C943F000C943F0064
:100020000C943F000C943F000C943F000C943F0054
:100030000C943F000C943F000C943F000C943F0044
:100040000C943F000C943F000C943F000C943F0034
:100050000C943F0011241FBECFE5D4E0DEBFCDBF1E
:1000600010E0A0E6B0E0EEE5F1E002C005900D92F0
:10007000A237B107D9F70E9493000C94AD000C94FD
:10008000000088BBDD98DE98DF9A8FE39CE901973A
:10009000F1F700C00000DF98089588BBDD9ADE9874
:1000A000DF9A8FE39CE90197F1F700C00000DF9829
:1000B000089588E30E9441008FE99FE00197F1F7DE
:1000C00000C0000081E00E9441008FE99FE001979D
:1000D000F1F700C0000082E00E9441008FE99FE03C
:1000E0000197F1F700C0000086E00E9441008FE90F
:1000F0009FE00197F1F700C0000080E80E944100F6
:100100008FE99FE00197F1F700C000000895CF93B9
:10011000DF93EC018991882319F00E944D00FACFFA
:10012000DF91CF91089580EE8ABB8FEF87BB0E944D
:1001300059008FE39CE90197F1F700C000008EE0C1
:100140000E9441008FE39CE90197F1F700C0000095
:0E01500080E690E00E948700FFCFF894FFCF7A
:10015E0048656C6C6F204265686E616D5A617265A0
:02016E0000008F
:00000001FF
