:100000000C942A000C9434000C9434000C943400AA
:100010000C9434000C9434000C9434000C94340090
:100020000C9434000C9434000C9434000C94340080
:100030000C9434000C9434000C9434000C94340070
:100040000C9434000C9434000C9434000C94340060
:100050000C94340011241FBECFE5D4E0DEBFCDBF29
:100060000E9436000C9455000C9400001ABA8FEFD1
:1000700087BB21E088B3222311F0880F03C090E0F2
:100080009595879588BB88B3811101C021E0C799F8
:1000900020E0C899C09A3FE986E891E0315080405D
:0E00A0009040E1F700C00000E5CFF894FFCFDC
:00000001FF
