:100000000C942A000C9434000C9434000C943400AA
:100010000C9434000C9434000C9434000C94340090
:100020000C9434000C9434000C9434000C94340080
:100030000C9434000C9434000C9434000C94340070
:100040000C9434000C9434000C9434000C94340060
:100050000C94340011241FBECFE5D4E0DEBFCDBF29
:100060000E9436000C9448000C9400001ABA8FEFDE
:1000700087BBC89BFECF88B3809588BB2FE986E8F5
:1000800091E0215080409040E1F700C00000F1CFA6
:04009000F894FFCF12
:00000001FF
