:100000000C942A000C9447000C9447000C94470071
:100010000C9447000C9447000C9447000C94470044
:100020000C9447000C9447000C9447000C94470034
:100030000C9447000C9447000C9447000C94470024
:100040000C9447000C9447000C9447000C94470014
:100050000C94470011241FBECFE5D4E0DEBFCDBF16
:1000600010E0A0E6B0E0EEEDF0E002C005900D92E9
:10007000AA36B107D9F720E0AAE6B0E001C01D9288
:10008000AB36B207E1F70E9449000C946D000C9466
:10009000000085E08EBD88E391E09BBD8ABD8FEFB7
:1000A00081BB8091600082BB10926A00E0916A007F
:1000B000EA30D0F708B604FEFDCFF0E0E05AFF4F7B
:1000C000808182BB1DBC1CBC88B7806188BF8091C9
:0E00D0006A008F5F80936A00E9CFF894FFCF3B
:0A00DE00C0F9A4B0999282F8809056
:00000001FF
