:100000000C942A000C9447000C9447000C94470071
:100010000C9447000C9447000C9447000C94470044
:100020000C9447000C9463000C9447000C94470018
:100030000C9447000C9447000C9447000C94470024
:100040000C9447000C9447000C9447000C94B600A5
:100050000C94470011241FBECFE5D4E0DEBFCDBF16
:1000600010E0A0E6B0E0E6E0F4E002C005900D92FA
:10007000A436B107D9F720E0A4E6B0E001C01D9294
:10008000AA36B207E1F70E940B010C9401020C940E
:100090000000809164009091650001968430910584
:1000A0002CF4909365008093640004C01092650066
:1000B00010926400E0916400F0916500E05AFF4FF7
:1000C00080818BBB08951F920F920FB60F9211245F
:1000D000CF92DF92EF92FF922F933F934F935F93D4
:1000E0006F937F938F939F93AF93BF93EF93FF9300
:1000F00020E030E040E05FE36091660070916700CF
:1001000080916800909169000E941B016B017C0145
:1001100020E030E04CE951E40E94D80187FF09C09B
:10012000C0926600D0926700E0926800F092690089
:1001300008C010926600109267001092680010923A
:100140006900FF91EF91BF91AF919F918F917F9146
:100150006F915F914F913F912F91FF90EF90DF90C2
:10016000CF900F900FBE0F901F9018951F920F9277
:100170000FB60F921124CF92DF92EF92FF922F933E
:100180003F934F935F936F937F938F939F93AF931F
:10019000BF93EF93FF9320E030E040E05FE3609196
:1001A00066007091670080916800909169000E94DC
:1001B0001B016B017C0120E030E04CE951E40E941E
:1001C000D80187FF09C0C0926600D0926700E09214
:1001D0006800F09269000AC01092660010926700F1
:1001E00010926800109269000E944900FF91EF91FF
:1001F000BF91AF919F918F917F916F915F914F913F
:100200003F912F91FF90EF90DF90CF900F900FBE16
:100210000F901F90189514BA9A99FECF8FEF8ABB52
:100220001BBA85E083BF83E089BF12BE80E88CBF24
:100230007894FFCF5058BB27AA270E9432010C9414
:100240009E010E94900138F00E94970120F039F43D
:100250009F3F19F426F40C948D010EF4E095E7FB12
:100260000C948701E92F0E94AF0158F3BA17620777
:1002700073078407950720F079F4A6F50C94D10153
:100280000EF4E0950B2EBA2FA02D0B01B9019001B1
:100290000C01CA01A0011124FF27591B99F0593FF5
:1002A00050F4503E68F11A16F040A22F232F342F3D
:1002B0004427585FF3CF469537952795A795F0408B
:1002C0005395C9F77EF41F16BA0B620B730B840BA0
:1002D000BAF09150A1F0FF0FBB1F661F771F881F58
:1002E000C2F70EC0BA0F621F731F841F48F48795B0
:1002F00077956795B795F7959E3F08F0B0CF9395A2
:10030000880F08F09927EE0F97958795089597F92C
:100310009F6780E870E060E008959FEF80EC0895AB
:1003200000240A94161617061806090608950024D4
:100330000A9412161306140605060895092E03944E
:10034000000C11F4882352F0BB0F40F4BF2B11F4C2
:1003500060FF04C06F5F7F4F8F4F9F4F089557FD21
:100360009058440F551F59F05F3F71F04795880F23
:1003700097FB991F61F09F3F79F0879508951216BA
:1003800013061406551FF2CF4695F1DF08C0161666
:1003900017061806991FF1CF869571056105089417
:1003A0000895E894BB2766277727CB0197F908952E
:1003B0000E94DD0108F48FEF0895990F0008550F92
:1003C000AA0BE0E8FEEF16161706E807F907C0F0DB
:1003D00012161306E407F50798F0621B730B840BE3
:1003E000950B39F40A2661F0232B242B252B21F4BD
:1003F00008950A2609F4A140A6958FEF811D811D5D
:060400000895F894FFCFFF
:0404060005060A09D4
:00000001FF
