:100000000C9432000C944F000C944F000C944F0051
:100010000C944F000C944F000C944F000C944F0024
:100020000C944F000C944F000C944F000C944F0014
:100030000C944F000C944F000C944F000C944F0004
:100040000C944F000C944F000C944F000C947E01C4
:100050000C944F003738392F3435362A3132332D4E
:1000600043303D2B11241FBECFE5D4E0DEBFCDBF12
:1000700010E0A0E6B0E0E0E7F3E002C005900D92EA
:10008000AE36B107D9F720E0AEE6B0E001C01D9270
:10009000AA37B207E1F70E94A7010C94B6010C94AD
:1000A00000009BB39F70282F207F922B9BBBD8987A
:1000B000D99A32E03A95F1F700C0D998EFE8F1E02B
:1000C0003197F1F700C000002BB32F70F0E18F9F44
:1000D000C0011124822B8BBBD99A32E03A95F1F7FB
:1000E00000C0D9988FE99FE00197F1F700C00000A8
:1000F00008959BB39F70282F207F922B9BBBD89A8B
:10010000D99A32E03A95F1F700C0D998EFE8F1E0DA
:100110003197F1F700C000002BB32F70F0E18F9FF3
:10012000C0011124822B8BBBD99A32E03A95F1F7AA
:1001300000C0D9988FE99FE00197F1F700C0000057
:100140000895CF93DF93EC018991882319F00E94E1
:100150007900FACFDF91CF91089581E00E9451009C
:100160008FE697E10197F1F700C0000080E80C945A
:1001700051008AB3836F8ABB8FE39CE90197F1F743
:1001800000C0000082E00E94510088E20E945100FD
:100190008EE00E9451008FE697E10197F1F700C0D1
:1001A0000000089584B3806F84BB85B38F6085BBE6
:1001B0000895CF93DF931F92CDB7DEB780EF898389
:1001C00083B399818170892B898383B399818270EC
:1001D000892B898383B399818470892B898383B325
:1001E00099818870892B8983998181E09F3F09F4E7
:1001F00080E0819590E00F90DF91CF9108950E946B
:10020000D900892BE1F708952FEE3FED4FEB9FE7E3
:1002100085B38F7085BB000083B38F7080936F00B0
:100220008F30B1F7EFE3FCE93197F1F700C0000040
:1002300083B38F7080936F008F30A1F3FFEF59EF7E
:1002400060E0F15050406040E1F700C0000083B32F
:100250008F7080936F008F3029F325BB000083B32C
:100260008F7080936F008F3019F010926E0020C055
:1002700035BB000083B38F7080936F008F3011F017
:1002800081E014C045BB000083B38F7080936F0082
:100290008F3011F082E00AC095BB000083B38F70ED
:1002A00080936F008F3009F4B3CF83E080936E00AA
:1002B00080916F00E0916E00F0E08E3019F4EC5AFE
:1002C000FF4F0CC08D3019F4E85AFF4F07C08B3038
:1002D00019F4E45AFF4F02C0E05AFF4F8491089589
:1002E00012BE83B7886083BF83B7826083BF83B742
:1002F000816083BF89B7826089BF08951F920F9282
:100300000FB60F9211242F933F934F935F936F93E8
:100310007F938F939F93AF93BF93EF93FF9380EC63
:100320000E9451000E9404010E947900FF91EF9108
:10033000BF91AF919F918F917F916F915F914F91FD
:100340003F912F910F900FBE0F901F9018950E9414
:10035000B90080E690E00E94A10080EC0E9451006C
:100360000E94D2000E9470017894FFCFF894FFCFD2
:0E0370005072657373206B65792E2E2E00007F
:00000001FF
